{
  "contractName": "Faucet",
  "abi": [
    {
      "inputs": [
        {
          "internalType": "address",
          "name": "",
          "type": "address"
        }
      ],
      "name": "funders",
      "outputs": [
        {
          "internalType": "bool",
          "name": "",
          "type": "bool"
        }
      ],
      "stateMutability": "view",
      "type": "function"
    },
    {
      "inputs": [
        {
          "internalType": "uint256",
          "name": "",
          "type": "uint256"
        }
      ],
      "name": "lutFunders",
      "outputs": [
        {
          "internalType": "address",
          "name": "",
          "type": "address"
        }
      ],
      "stateMutability": "view",
      "type": "function"
    },
    {
      "inputs": [],
      "name": "numOfFunders",
      "outputs": [
        {
          "internalType": "uint256",
          "name": "",
          "type": "uint256"
        }
      ],
      "stateMutability": "view",
      "type": "function"
    },
    {
      "stateMutability": "payable",
      "type": "receive"
    },
    {
      "inputs": [],
      "name": "addFunds",
      "outputs": [],
      "stateMutability": "payable",
      "type": "function"
    },
    {
      "inputs": [
        {
          "internalType": "uint256",
          "name": "index",
          "type": "uint256"
        }
      ],
      "name": "getFunderIndex",
      "outputs": [
        {
          "internalType": "address",
          "name": "",
          "type": "address"
        }
      ],
      "stateMutability": "view",
      "type": "function"
    },
    {
      "inputs": [],
      "name": "getAllFunders",
      "outputs": [
        {
          "internalType": "address[]",
          "name": "",
          "type": "address[]"
        }
      ],
      "stateMutability": "view",
      "type": "function"
    },
    {
      "inputs": [
        {
          "internalType": "uint256",
          "name": "amount",
          "type": "uint256"
        }
      ],
      "name": "withdraw",
      "outputs": [],
      "stateMutability": "nonpayable",
      "type": "function"
    }
  ],
  "bytecode": "0x608060405234801561001057600080fd5b506108e5806100206000396000f3fe6080604052600436106100745760003560e01c80636fbbb55d1161004e5780636fbbb55d1461012357806389a620db1461014e578063a26759cb1461018b578063af7f2c9b146101955761007b565b8063031b3677146100805780631f8947ea146100bd5780632e1a7d4d146100fa5761007b565b3661007b57005b600080fd5b34801561008c57600080fd5b506100a760048036038101906100a29190610562565b6101c0565b6040516100b491906105aa565b60405180910390f35b3480156100c957600080fd5b506100e460048036038101906100df91906105fb565b6101e0565b6040516100f19190610637565b60405180910390f35b34801561010657600080fd5b50610121600480360381019061011c91906105fb565b610213565b005b34801561012f57600080fd5b506101386102aa565b6040516101459190610710565b60405180910390f35b34801561015a57600080fd5b50610175600480360381019061017091906105fb565b6103a3565b6040516101829190610637565b60405180910390f35b6101936103e0565b005b3480156101a157600080fd5b506101aa6104f9565b6040516101b79190610741565b60405180910390f35b60026020528060005260406000206000915054906101000a900460ff1681565b60016020528060005260406000206000915054906101000a900473ffffffffffffffffffffffffffffffffffffffff1681565b80670de0b6b3a764000081111561025f576040517f08c379a0000000000000000000000000000000000000000000000000000000008152600401610256906107b9565b60405180910390fd5b3373ffffffffffffffffffffffffffffffffffffffff166108fc839081150290604051600060405180830381858888f193505050501580156102a5573d6000803e3d6000fd5b505050565b60606000805467ffffffffffffffff8111156102c9576102c86107d9565b5b6040519080825280602002602001820160405280156102f75781602001602082028036833780820191505090505b50905060005b60005481101561039b576001600082815260200190815260200160002060009054906101000a900473ffffffffffffffffffffffffffffffffffffffff1682828151811061034e5761034d610808565b5b602002602001019073ffffffffffffffffffffffffffffffffffffffff16908173ffffffffffffffffffffffffffffffffffffffff1681525050808061039390610866565b9150506102fd565b508091505090565b60006001600083815260200190815260200160002060009054906101000a900473ffffffffffffffffffffffffffffffffffffffff169050919050565b6000339050600260008273ffffffffffffffffffffffffffffffffffffffff1673ffffffffffffffffffffffffffffffffffffffff16815260200190815260200160002060009054906101000a900460ff166104f6576001600260008373ffffffffffffffffffffffffffffffffffffffff1673ffffffffffffffffffffffffffffffffffffffff16815260200190815260200160002060006101000a81548160ff02191690831515021790555080600160008060008154809291906104a590610866565b91905055815260200190815260200160002060006101000a81548173ffffffffffffffffffffffffffffffffffffffff021916908373ffffffffffffffffffffffffffffffffffffffff1602179055505b50565b60005481565b600080fd5b600073ffffffffffffffffffffffffffffffffffffffff82169050919050565b600061052f82610504565b9050919050565b61053f81610524565b811461054a57600080fd5b50565b60008135905061055c81610536565b92915050565b600060208284031215610578576105776104ff565b5b60006105868482850161054d565b91505092915050565b60008115159050919050565b6105a48161058f565b82525050565b60006020820190506105bf600083018461059b565b92915050565b6000819050919050565b6105d8816105c5565b81146105e357600080fd5b50565b6000813590506105f5816105cf565b92915050565b600060208284031215610611576106106104ff565b5b600061061f848285016105e6565b91505092915050565b61063181610524565b82525050565b600060208201905061064c6000830184610628565b92915050565b600081519050919050565b600082825260208201905092915050565b6000819050602082019050919050565b61068781610524565b82525050565b6000610699838361067e565b60208301905092915050565b6000602082019050919050565b60006106bd82610652565b6106c7818561065d565b93506106d28361066e565b8060005b838110156107035781516106ea888261068d565b97506106f5836106a5565b9250506001810190506106d6565b5085935050505092915050565b6000602082019050818103600083015261072a81846106b2565b905092915050565b61073b816105c5565b82525050565b60006020820190506107566000830184610732565b92915050565b600082825260208201905092915050565b7f43616e6e6f74205769746864726177206d6f7265207468616e20314554480000600082015250565b60006107a3601e8361075c565b91506107ae8261076d565b602082019050919050565b600060208201905081810360008301526107d281610796565b9050919050565b7f4e487b7100000000000000000000000000000000000000000000000000000000600052604160045260246000fd5b7f4e487b7100000000000000000000000000000000000000000000000000000000600052603260045260246000fd5b7f4e487b7100000000000000000000000000000000000000000000000000000000600052601160045260246000fd5b6000610871826105c5565b91507fffffffffffffffffffffffffffffffffffffffffffffffffffffffffffffffff8214156108a4576108a3610837565b5b60018201905091905056fea264697066735822122049209660817d9dc573a51948488943af9e71d2660e5f38d01c20d440ead7811364736f6c634300080b0033",
  "immutableReferences": {},
  "source": "pragma solidity ^0.8.6;\r\n\r\ncontract Faucet{\r\n    //addFund, withDraw, addressindex, getFunder\r\n    uint256 public numOfFunders; \r\n    mapping(uint256 => address) public lutFunders;\r\n    mapping(address => bool) public funders;\r\n    receive() external payable{} //co the nhan tien\r\n\r\n    function addFunds() external payable{\r\n        address funder = msg.sender;\r\n        if (!funders[funder]){\r\n            funders[funder] =true;\r\n            lutFunders[numOfFunders++] = funder;\r\n        }\r\n    }\r\n\r\n    function  getFunderIndex(uint256 index) external view returns(address) {\r\n        return lutFunders[index];\r\n    }\r\n\r\n    function getAllFunders() external view returns(address[] memory){\r\n        address[] memory _funders = new address[](numOfFunders);\r\n        for (uint256 i = 0;i<numOfFunders;i++){\r\n            _funders[i] = lutFunders[i];\r\n        }\r\n        return _funders;\r\n    }\r\n\r\n    function withdraw(uint256 amount) external limitWithdraw(amount){\r\n        payable(msg.sender).transfer(amount);\r\n    }\r\n\r\n    modifier limitWithdraw(uint256 amount) {\r\n        require(amount <= (10**18),\"Cannot Withdraw more than 1ETH\");\r\n        _;\r\n    }\r\n}\r\n\r\n",
  "sourcePath": "C:\\Users\\lmtri\\OneDrive\\Documents\\Project\\faucet-final-ver2\\contracts\\Faucet.sol",
  "compiler": {
    "name": "solc",
    "version": "0.8.11+commit.d7f03943.Emscripten.clang"
  },
  "schemaVersion": "3.4.4",
  "updatedAt": "2022-07-12T13:26:39.302Z",
  "devdoc": {
    "kind": "dev",
    "methods": {},
    "version": 1
  },
  "userdoc": {
    "kind": "user",
    "methods": {},
    "version": 1
  }
}